{
  "_format": "hh-sol-artifact-1",
  "contractName": "lottery",
  "sourceName": "contracts/lottery.sol",
  "abi": [
    {
      "inputs": [],
      "stateMutability": "nonpayable",
      "type": "constructor"
    },
    {
      "inputs": [
        {
          "internalType": "address",
          "name": "account",
          "type": "address"
        }
      ],
      "name": "balanceOf",
      "outputs": [
        {
          "internalType": "uint256",
          "name": "",
          "type": "uint256"
        }
      ],
      "stateMutability": "view",
      "type": "function"
    },
    {
      "inputs": [],
      "name": "enter",
      "outputs": [],
      "stateMutability": "payable",
      "type": "function"
    },
    {
      "inputs": [],
      "name": "manager",
      "outputs": [
        {
          "internalType": "address",
          "name": "",
          "type": "address"
        }
      ],
      "stateMutability": "view",
      "type": "function"
    },
    {
      "inputs": [
        {
          "internalType": "uint256",
          "name": "",
          "type": "uint256"
        }
      ],
      "name": "players",
      "outputs": [
        {
          "internalType": "address payable",
          "name": "",
          "type": "address"
        }
      ],
      "stateMutability": "view",
      "type": "function"
    },
    {
      "inputs": [],
      "name": "winner",
      "outputs": [],
      "stateMutability": "payable",
      "type": "function"
    },
    {
      "inputs": [],
      "name": "winner1",
      "outputs": [
        {
          "internalType": "address payable",
          "name": "",
          "type": "address"
        }
      ],
      "stateMutability": "view",
      "type": "function"
    }
  ],
  "bytecode": "0x608060405234801561001057600080fd5b50336000806101000a81548173ffffffffffffffffffffffffffffffffffffffff021916908373ffffffffffffffffffffffffffffffffffffffff160217905550610b11806100606000396000f3fe6080604052600436106100555760003560e01c80633bc25ed61461005a578063481c6a751461008557806370a08231146100b0578063dfbf53ae146100ed578063e97dcb62146100f7578063f71d96cb14610101575b600080fd5b34801561006657600080fd5b5061006f61013e565b60405161007c91906105d9565b60405180910390f35b34801561009157600080fd5b5061009a610164565b6040516100a79190610615565b60405180910390f35b3480156100bc57600080fd5b506100d760048036038101906100d29190610661565b610188565b6040516100e491906106a7565b60405180910390f35b6100f56101a9565b005b6100ff61033e565b005b34801561010d57600080fd5b50610128600480360381019061012391906106ee565b610435565b60405161013591906105d9565b60405180910390f35b600260009054906101000a900473ffffffffffffffffffffffffffffffffffffffff1681565b60008054906101000a900473ffffffffffffffffffffffffffffffffffffffff1681565b60008173ffffffffffffffffffffffffffffffffffffffff16319050919050565b60008054906101000a900473ffffffffffffffffffffffffffffffffffffffff1673ffffffffffffffffffffffffffffffffffffffff163373ffffffffffffffffffffffffffffffffffffffff1614610237576040517f08c379a000000000000000000000000000000000000000000000000000000000815260040161022e90610778565b60405180910390fd5b6000600180549050610247610474565b61025191906107c7565b905060018181548110610267576102666107f8565b5b9060005260206000200160009054906101000a900473ffffffffffffffffffffffffffffffffffffffff16600260006101000a81548173ffffffffffffffffffffffffffffffffffffffff021916908373ffffffffffffffffffffffffffffffffffffffff160217905550600260009054906101000a900473ffffffffffffffffffffffffffffffffffffffff1673ffffffffffffffffffffffffffffffffffffffff166108fc479081150290604051600060405180830381858888f1935050505015801561033a573d6000803e3d6000fd5b5050565b60013414801561035357506002600180549050105b610392576040517f08c379a000000000000000000000000000000000000000000000000000000000815260040161038990610873565b60405180910390fd5b6001339080600181540180825580915050600190039060005260206000200160009091909190916101000a81548173ffffffffffffffffffffffffffffffffffffffff021916908373ffffffffffffffffffffffffffffffffffffffff1602179055506104336040518060400160405280600a81526020017f5375636365737366756c000000000000000000000000000000000000000000008152506104af565b565b6001818154811061044557600080fd5b906000526020600020016000915054906101000a900473ffffffffffffffffffffffffffffffffffffffff1681565b6000804442600160405160200161048d939291906109d2565b6040516020818303038152906040529050808051906020012060001c91505090565b610545816040516024016104c39190610a8a565b6040516020818303038152906040527f41304fac000000000000000000000000000000000000000000000000000000007bffffffffffffffffffffffffffffffffffffffffffffffffffffffff19166020820180517bffffffffffffffffffffffffffffffffffffffffffffffffffffffff8381831617835250505050610548565b50565b61055f81610557610562610583565b63ffffffff16565b50565b60006a636f6e736f6c652e6c6f679050600080835160208501845afa505050565b61058e819050919050565b610596610aac565b565b600073ffffffffffffffffffffffffffffffffffffffff82169050919050565b60006105c382610598565b9050919050565b6105d3816105b8565b82525050565b60006020820190506105ee60008301846105ca565b92915050565b60006105ff82610598565b9050919050565b61060f816105f4565b82525050565b600060208201905061062a6000830184610606565b92915050565b600080fd5b61063e816105f4565b811461064957600080fd5b50565b60008135905061065b81610635565b92915050565b60006020828403121561067757610676610630565b5b60006106858482850161064c565b91505092915050565b6000819050919050565b6106a18161068e565b82525050565b60006020820190506106bc6000830184610698565b92915050565b6106cb8161068e565b81146106d657600080fd5b50565b6000813590506106e8816106c2565b92915050565b60006020828403121561070457610703610630565b5b6000610712848285016106d9565b91505092915050565b600082825260208201905092915050565b7f6e6565647320746f2062652061206d616e616765720000000000000000000000600082015250565b600061076260158361071b565b915061076d8261072c565b602082019050919050565b6000602082019050818103600083015261079181610755565b9050919050565b7f4e487b7100000000000000000000000000000000000000000000000000000000600052601260045260246000fd5b60006107d28261068e565b91506107dd8361068e565b9250826107ed576107ec610798565b5b828206905092915050565b7f4e487b7100000000000000000000000000000000000000000000000000000000600052603260045260246000fd5b7f6572726f72000000000000000000000000000000000000000000000000000000600082015250565b600061085d60058361071b565b915061086882610827565b602082019050919050565b6000602082019050818103600083015261088c81610850565b9050919050565b6000819050919050565b6108ae6108a98261068e565b610893565b82525050565b600081549050919050565b600081905092915050565b60008190508160005260206000209050919050565b6108e8816105b8565b82525050565b60006108fa83836108df565b60208301905092915050565b60008160001c9050919050565b600073ffffffffffffffffffffffffffffffffffffffff82169050919050565b600061094661094183610906565b610913565b9050919050565b60006109598254610933565b9050919050565b6000600182019050919050565b6000610978826108b4565b61098281856108bf565b935061098d836108ca565b8060005b838110156109c5576109a28261094d565b6109ac88826108ee565b97506109b783610960565b925050600181019050610991565b5085935050505092915050565b60006109de828661089d565b6020820191506109ee828561089d565b6020820191506109fe828461096d565b9150819050949350505050565b600081519050919050565b60005b83811015610a34578082015181840152602081019050610a19565b60008484015250505050565b6000601f19601f8301169050919050565b6000610a5c82610a0b565b610a66818561071b565b9350610a76818560208601610a16565b610a7f81610a40565b840191505092915050565b60006020820190508181036000830152610aa48184610a51565b905092915050565b7f4e487b7100000000000000000000000000000000000000000000000000000000600052605160045260246000fdfea2646970667358221220ca68a40400634083c4786daccdece2cf9eb10cf919a55728041f3e3d63d671b064736f6c63430008130033",
  "linkReferences": {},
  "deployedLinkReferences": {}
}